:1000000009C016C038C014C013C012C011C010C03F
:100010000FC00EC011241FBECFE9CDBF10E0A0E677
:10002000B0E001C01D92AA36B107E1F77FD0ABC0A6
:10003000E7CFC29A80EC9DE5FC013197F1F701977B
:10004000F1F7C29808958091600090916100892B2A
:1000500029F0C09A80EC9DE50197F1F7C09880ECFB
:100060009DE50197F1F70895892B11F482E001C015
:1000700083E087B908951F920F920FB60F92112453
:100080002F933F934F935F936F937F938F939F93A0
:10009000AF93BF93EF93FF938091660090916700B9
:1000A00018161906DCF4809160009091610022E03E
:1000B00030E0822793279093610080936000109234
:1000C000670010926600BFDFC09A80EC9DE5FC01DE
:1000D0003197F1F7C0980197F1F709C08091660058
:1000E0009091670001969093670080936600FF915E
:1000F000EF91BF91AF919F918F917F916F915F91A0
:100100004F913F912F910F900FBE0F901F90189518
:1001100087B3856087BB86B1836886B9A99A8BB798
:1001200080628BBF82E085BF78940895EF92FF9242
:100130000F931F93CF93DF93EBDFC0E0D0E093E00A
:10014000E92E82E0F82E00EC1DE5209711F4F7B8B7
:1001500001C0E7B8379A369A3699FECF369A01C071
:1001600037983699FDCFC8010197F1F785B18230F4
:1001700010F05FDF68DF80E090E0CD2B11F481E0CC
:0A01800090E0EC01E2CFF894FFCF0D
:00000001FF
